:100000000C948E020C94D5020C94D5020C9483109F
:100010000C94D5020C94D5020C94D5020C94D50204
:100020000C94D5020C94D5020C94FF210C94D1228F
:100030000C947A1D0C94D5020C94D5020C94D50224
:100040000C94D5020C94D5020C94D5020C94D502D4
:100050000C94D5020C94E21D0C94D5020C94D5029C
:100060000C94D5020C94D5020C94D5020C94D502B4
:100070000C94D5020C94D5020C94D5020C94D502A4
:100080000C94D5020C94D5020C94D5020C94D50294
:100090000C94D5020C94D5020C94D5020C94D50284
:1000A0000C94D5020C94D5020C94D5022F0D320D70
:1000B000370D3E0D430D480D4D0D520D570D5C0D86
:1000C000610D660D680D6B0D6E0D710D740D770D64
:1000D000790D7E0D8F138F13C113C11324152415B1
:1000E000241524150E14A314B414B41414152415D3
:1000F00024151D15AD15AD15BF15BF15B615BF15CA
:10010000BF15BF15AD15AD15BB15BF15BF15BB157B
:100110003E2365235D2465235D24B123D4235D2420
:100120002B243A2429001E001F0020002100220059
:10013000000000002B0014001A0008001500170032
:1001400000000000E00004001600070009000A009B
:1001500000000000E1001D001B0006001900050062
:10016000000000000151E000E300E2002C0000006C
:1001700000000000230024002500260027002D0099
:100180002E002A001C0018000C00120013002F0083
:10019000300031000B000D000E000F003300340062
:1001A0000000280011001000360037003800E5007C
:1001B000520001512800E4000000E6000000500059
:1001C00051004F0035003A003B003C003D003E002E
:1001D00000000000C25C0000C55CC75CC95C000098
:1001E000000000000000C35CC65CC85CCA5C000084
:1001F00000000000010000000000000000000000FE
:1002000000000000010001000100010000000000EA
:10021000000000003F004000410042004300440055
:1002200045004C000000000000000000000000003D
:1002300000000000000000000000000000000000BE
:1002400000000000000000000000000000000100AD
:100250004B000100000000000000000000004A0008
:100260004E004D0000047F3F1F6432146432147846
:100270003C1E1E140A052223252628292A2C2D2F50
:100280003032333536383A3B3D3E404243454749AC
:100290004A4C4E5051535557595A5C5E60626466E1
:1002A00068696B6D6F71737577797B7D7F818385ED
:1002B00087898A8C8E90929496989A9C9E9FA1A3EF
:1002C000A5A7A8AAACAEAFB1B3B4B6B8B9BBBCBE13
:1002D000BFC1C2C3C5C6C7C9CACBCCCDCED0D1D28F
:1002E000D2D3D4D5D6D7D7D8D9D9DADADBDBDBDC91
:1002F000DCDCDCDCDDDDDDDDDCDCDCDCDCDBDBDB3D
:10030000DADAD9D9D8D7D7D6D5D4D3D2D2D1D0CE9C
:10031000CDCCCBCAC9C7C6C5C3C2C1BFBEBCBBB9A1
:10032000B8B6B4B3B1AFAEACAAA8A7A5A3A19F9E1F
:100330009C9A98969492908E8C8A89878583817FE7
:100340007D7B79777573716F6D6B696866646260C8
:100350005E5C5A5957555351504E4C4A4947454394
:1003600042403E3D3B3A3836353332302F2D2C2A31
:10037000292826252322FFAA7F55400001010101DB
:100380000101010101020202020202020202030350
:100390000303030303030404040404040405050520
:1003A00005050606060606070707070708080808E2
:1003B000090909090A0A0A0B0B0B0C0C0C0D0D0D8F
:1003C0000E0E0E0F0F0F1010111111121213131425
:1003D00014151516161717181819191A1A1B1B1C9D
:1003E0001D1D1E1E1F2020212222232424252626F7
:1003F000272829292A2B2C2D2D2E2F30313232332C
:100400003435363738393A3B3C3D3E3F4041424334
:100410004445464748494A4C4D4E4F505153545518
:100420005658595A5B5D5E5F616264656668696BC8
:100430006C6D6F7072737577787A7B7D7E80828346
:100440008587888A8C8E8F91939596989A9C9EA08A
:10045000A2A3A5A7A9ABADAFB1B3B5B7BABCBEC097
:10046000C2C4C6C9CBCDCFD1D4D6D8DBDDDFE2E460
:10047000E7E9EBEEF0F3F5F8FAFDFF0403300000D6
:10048000000E034D0069006E00740036003000005D
:1004900000100345007500630061006C0079006E78
:1004A0000000000403090409022200010100A0FA6F
:1004B00009040000010301010009211101000122CA
:1004C00040000705810308000A1201100100000026
:1004D00008EDFE000001000102030105010906A16B
:1004E00001050719E029E715002501950875018127
:1004F000029501750881010507190029FF150026DD
:10050000FF00950675088100050819012905950564
:1005100075019102950175039101C00011241FBE60
:10052000CFEFDAE0DEBFCDBF04B603FE27C0809177
:10053000610290916202A0916302B09164028730DF
:10054000904BA740B04BD1F410926102109262021E
:10055000109263021092640214BE84B7877F84BF36
:100560000FB6F894A8958091600088618093600030
:10057000109260000FBEE0E0F8E3099511E0A0E002
:10058000B1E0ECE2FAE402C005900D92AE35B1079D
:10059000D9F722E0AEE5B1E001C01D92A136B20765
:1005A000E1F70E94411F0C9414250C94000081E097
:1005B000089581E008950C94D90208950C94DD0209
:1005C0001F93CF93DF9300D000D01F92CDB7DEB73B
:1005D00049835A836B8320918E0189819A812111ED
:1005E00012C0662349F00E94FD1A182F682F8981D6
:1005F0009A810E94A61A03C00E94D11A182F6981FD
:100600007A81812F04C00E94FD1A69817A810F903E
:100610000F900F900F900F90DF91CF911F910C943E
:100620009303FC01408151816281738184810C9428
:10063000E002CF93DF93EC010E941103BE01DF9132
:10064000CF910C94DE020E942F1C811102C00E94E7
:10065000CF1C0C9495050C94910508950C942D03D2
:1006600081E008950C943003CF93C82F0E942E038D
:100670008C2F0E943203CF91089508950E949B15FC
:100680000E943D032FEF84E39CE021508040904086
:10069000E1F700C000000C94081E0F931F93CF9346
:1006A000DF93EC010E9411038C01BE010E94DB026A
:1006B000882379F1BE01C8010E943B0E882349F1CD
:1006C000BE01C8010E947C0E882319F1BE01C80139
:1006D0000E94A70F8823E9F0BE01C8010E94190DEE
:1006E0008823B9F08A81882369F001158CE5180701
:1006F00031F00E3D1C4531F40E94CF1C0AC00E940F
:100700003E0307C0CE01DF91CF911F910F910C9452
:10071000D70280E0DF91CF911F910F91089580E083
:1007200090E008950895E72FF0E09AE0899FE00DAA
:10073000F11D112483E0EE0FFF1F8A95E1F7E60F0C
:10074000F11DEE0FFF1FEC5DFE4F85919491089512
:10075000880F991FFC01EC59FD4F859194910895E4
:10076000CF93DF930E9493030E94AC04EC018115A8
:1007700021E59207A0F5811540E5940708F086C0B1
:10078000C11580E2D807F0F4C11521E0D20708F0C6
:10079000DFC0C03ED10588F4C03CD10508F062C07E
:1007A000C130D10509F4D4C008F4D0C0CE010497FB
:1007B000813A910508F4CCC0C9C0C83ED10508F4FF
:1007C000C7C0C4C0C11540E4D40708F05CC0C1155F
:1007D00080E3D80708F04DC0CE019F7046C0811558
:1007E00025E59207A0F4811544E5940708F095C02B
:1007F000C11583E5D80708F07AC0C11522E5D207F4
:1008000008F05FC0DC2FCC27C16FD06AA1C0811572
:1008100049E59407A0F4C11588E5D80708F082C01F
:10082000C11526E5D20708F091C08C2F0E94400523
:100830008F71C82FD0E0DC2FCC27D06289C0811502
:100840004AE5940708F473C090568115904208F069
:100850007DC08D2F8F710E944005DD27D0628F7182
:10086000D82B76C0CE01805C91090E94A803EC01D0
:100870006FC0CE019927D3FF03C0EC01D86C68C0CC
:10088000EC01D06C65C0DF70D06A62C074E09695F0
:1008900087957A95E1F783709C2F937021E030E083
:1008A00002C0220F331F9A95E2F73C68382BCF70B5
:1008B000C695C69540E2C49FE0011124C22BD32BFC
:1008C00047C0CE018370992721E030E002C0220F9B
:1008D000331F8A95E2F78C2F8695869540E2849F98
:1008E000C0011124E901C82BD92BDC6831C0CE012D
:1008F0008370992721E030E002C0220F331F8A95D0
:10090000E2F78C2F8695869540E2849FC0011124E2
:10091000E901C82BD92BDA681BC0D82FCC27C46FAC
:10092000D06A16C0DC2FCC27C06FD06A11C08F7080
:100930000E94400594E0D695C7959A95E1F7CF704F
:10094000D0E0DC2FCC27D069C82B02C0C0E0D0E0BB
:10095000CE01DF91CF9108958238910569F1B0F40D
:100960008133910509F46DC048F48932910509F489
:1009700063C08A32910509F469C0089585339105F1
:1009800009F455C089339105B9F00895833E910566
:1009900069F138F4803E9105B1F0823E910509F18C
:1009A0000895863E9105A9F1873E9105B9F1843EEF
:1009B000910509F064C023C02091520220FD4FC070
:1009C00021FD4DC008958091520280FD44C0809168
:1009D000530280FF44C08091520284FD42C083EEE6
:1009E0004DC08091520282FF38C0F5CF80915202F3
:1009F00082FD33C08091530280FD31C0ECCF8091E5
:100A0000530281FF32C08091520284FD2AC087EEDA
:100A100035C08091520283FF26C0F5CF80915202EB
:100A200083FD21C08091530281FD1FC0ECCF8091D6
:100A3000520285FD1CC01DC08091520285FD19C067
:100A400016C08091520286FD16C017C080915202D6
:100A500086FD13C010C089E311C082EE0FC080EE86
:100A60000DC080E00BC086EE09C084EE07C089E2AD
:100A700005C085E303C08AE201C081E390E00895E8
:100A80009091520292FF0DC0282F2871283019F43E
:100A9000877F846006C0282F2471243011F48B7F57
:100AA000886093FF0DC0282F2871283119F4877EA4
:100AB000846106C0282F2471243111F48B7E886153
:100AC0002091530220FF0DC0382F3871383019F4AF
:100AD000877F816006C0382F3171313011F48E7FED
:100AE000886021FF0DC0282F2871283119F4877ED6
:100AF000816106C0282F2171213111F48E7E886119
:100B000094FD877E0895E82FF0E0EB5DFD4F808136
:100B10000895089580EA8A95F1F7089508950C9450
:100B20008E050C948F050C948E050C9493050895F6
:100B3000CF93DF930E941407809100018091000100
:100B4000811102C095E001C090E09093300285E0F1
:100B5000891B80932F02AEE2B1E043E351E061E0F4
:100B600070E08D91E82FE295EF70F0E021A18F7099
:100B7000EB0102C0CC0FDD1F8A95E2F7CE019C2F5E
:100B80009095922391A392A1892B82A34A175B0788
:100B900041F7A6E2B1E04EE251E061E070E08D91F4
:100BA000E82FE295EF70F0E021A18F70EB0102C019
:100BB000CC0FDD1F8A95E2F7CE019C2F90959223F2
:100BC00091A392A1892B82A34A175B0741F7EBE11E
:100BD000F2E0A5E2B2E085E292E011921D928E175A
:100BE0009F07D9F785E00E94BE060E942303DF918C
:100BF000CF910C941E070E94F506882309F180917D
:100C00002F0290E08B5D9D4F0E943107811114C02F
:100C100080915E018F5F80935E01863078F0E09175
:100C20002F02F0E0EB5DFD4F80E090E01192019625
:100C300085309105D9F702C010925E010C942B0308
:100C40008091300290E08B5D9D4F0E944C070C9488
:100C500097053F924F925F926F927F928F929F92F1
:100C6000AF92BF92CF92DF92EF92FF920F931F93BA
:100C7000CF93DF938EE2882E81E0982E0BE112E075
:100C800090E2692E92E0792E512CCC24C394D12C81
:100C90005801D8013C901C92F40181914F01C82F5A
:100CA000C295CF70D0E099A18F70760101C0EE0C93
:100CB0008A95EAF7892F8E2989A38AA14E2C409420
:100CC00084218AA30E948A05E6E2F1E020E030E078
:100CD0009191A92FA295AF70B0E090964C91D80158
:100CE0006C9150E09F7002C0559547959A95E2F738
:100CF00040FD08C09C2D022E01C0990F0A94EAF70E
:100D0000892F01C080E0862BD8018C932F5F3F4F45
:100D100028303105E9F689A1482249A28AA1E82AAA
:100D2000EAA20F5F1F4F81E0F5019081931101C08E
:100D300080E0582A6016710609F0AACF609130024F
:100D400070E06B5D7D4F252D45E08BE192E00E94C8
:100D5000BF060E94FB05852DDF91CF911F910F915A
:100D6000FF90EF90DF90CF90BF90AF909F908F90CB
:100D70007F906F905F904F903F9008950895FF92FD
:100D80000F931F93CF93DF938C01F62ED72FC42F91
:100D9000222349F081E0809361010E94AC1D909371
:100DA000600180935F01809161018823C1F080918F
:100DB0005F01909160010E94B81D069780F0EF2DB1
:100DC000FD2FD8014C2F50E0CD01801B910B8417D3
:100DD00095071CF48D918193F7CF10926101DF91FB
:100DE000CF911F910F91FF90089580916201811121
:100DF00012C08091D80080618093D8008AE18A95E2
:100E0000F1F700C08091D90080FD02C082E001C0EE
:100E100081E08093620181E090916201913009F05C
:100E200080E008950C94F5060E941207809300015B
:100E30000E94F50681110C94250708950E94F5067D
:100E4000811102C00C942B07089561E070E081E0ED
:100E500091E00C94351061E070E081E091E00C9439
:100E60003C10CF93DF93D82FC92F0E94D410892B29
:100E700079F4ED2FFC2F80E090E0DC01AC59BE4FFF
:100E80002C912193019685309105B9F781E001C03D
:100E900080E0DF91CF91089520E030E0FC014191A6
:100EA000CF01F901EC59FE4F40832F5F3F4F2530B2
:100EB0003105A1F70895EF92FF920F931F93CF93FF
:100EC000DF93F62E472FE82FF0E0711106C0E558AA
:100ED000FC4F6491762F862F72C0272F30E0E558A3
:100EE000FC4FE4910E2F10E056E0659FC0011124E5
:100EF000CFEFD0E0BE010E9491245BEA5603C0010F
:100F0000579F900D11248F0D911D8F0D911D982FBE
:100F1000990F890F7E01E21AF30AE09ED001E19E4B
:100F2000B00DF09EB00D1124489FA0011124452F53
:100F300055277E01E41AF50AE09EA001E19E500DBE
:100F4000F09E500D11247E01E81AF108E29EC001C6
:100F5000E39E900DF29E900D1124892F9927C81BB6
:100F6000D90BC09FC001C19F900DD09F900D11243F
:100F70006230710591F048F461157105E1F061305E
:100F80007105A9F48B2F752F19C06430710561F0BC
:100F900038F06630710579F00AC0892F7B2F0EC0BA
:100FA0008E2F7B2FE52F0AC08E2F792F02C0852F21
:100FB0007E2FEB2F03C08B2F7E2FE92F6E2FDF911B
:100FC000CF911F910F91FF90EF9008950895CF93C7
:100FD000DF93762FE901682F842F0E945B077983C6
:100FE00068838A83DF91CF91089580913102282F01
:100FF000269530E02115310519F48170826005C015
:101000002532310524F0817088648093310208957F
:1010100088E090E00C94D424CF92DF92EF92FF927C
:101020006B017C010E94F507B701A60188E090E002
:10103000FF90EF90DF90CF900C94F224E1E3F2E088
:1010400083E0808311828FEF8283838314826081A7
:101050007181828193810C940C088091310280FF10
:1010600002C08695089580E008958091350283300E
:1010700018F48F5F809335026091310270913202D3
:1010800080913302909134020C940C0880913502C7
:10109000882319F08150809335026091310270915C
:1010A000320280913302909134020C940C086091CA
:1010B0000D0170E08091310280FF0AC080916D01C6
:1010C00023E0829FC00111248A5C9D4F0C94C40DC3
:1010D00080916C0190910C01891780F7E82FF0E066
:1010E0009F01220F331FE20FF31FEA5CFD4F1182B5
:1010F000108212828F5FF0CF9091310290FF16C064
:1011000090916C0120910C01921770F4E92FF0E09E
:10111000DF01AA0FBB1FEA0FFB1FEA5CFD4F8183B3
:10112000608342839F5FF0CF0C9457080895CF935C
:10113000DF9300D01F92CDB7DEB79091310290FFC0
:101140000AC09E012F5F3F4F0E94E7074B816981D4
:101150008A810E947C080F900F900F90DF91CF91B1
:101160000895CF93DF93EC01EC81F0E0EA58FD4F56
:101170004491E1E3F2E0628181810E9497088C81D1
:101180008F5F8C83DF91CF910895CF93DF93EC0134
:10119000E1E3F2E0438162818C810E9497088C81B7
:1011A0008F5F8C83DF91CF9108950F931F93CF931F
:1011B000DF9300D01F92CDB7DEB78C01809169011B
:1011C00081110AC09E012F5F3F4F4FEF6FEF0E94CA
:1011D000E7078A8180936901F8018481813051F0A9
:1011E00028F0823061F4409169010AC08091690160
:1011F00040E007C06091690140E080E003C040E04A
:1012000080E060E00E947C08F801848190E0019613
:1012100063E070E00E94A52484830F900F900F90EC
:10122000DF91CF911F910F910895AF92BF92CF920E
:10123000DF92EF92FF920F931F93CF93DF9300D033
:101240001F92CDB7DEB7182FF62E042FE22E909105
:10125000310290FF6DC0E92FE695AE2FB0E0A85C9B
:10126000BE4F8C91809375019E7F923061F49E01F8
:101270002F5F3F4F812F0E94E7074B8169818A8151
:101280000E947C0843C0823019F4009134023EC0B1
:10129000863019F41091320239C08930D9F389317E
:1012A000A9F5E9518E2F8170D82EE695F0E0EA5825
:1012B000FC4FA590B490C12CBB2460910B01C616C5
:1012C00018F52C2D30E0A29EC001A39E900DB29E79
:1012D000900D112470E00E949124812FD11002C042
:1012E000860F01C0861B90916C01290F311DA90149
:1012F000440F551F240F351F2A5C3D4F402F6F2D83
:101300000E94E707C394D9CF0E9457081093320276
:10131000F092330200933402EE2051F060913102DA
:101320007091320280913302909134020E940C0835
:101330000F900F900F90DF91CF911F910F91FF9021
:10134000EF90DF90CF90BF90AF900895E1E3F2E08F
:101350009181282F438162818AE0890F0C941509BD
:1013600081E00C94A609E1E3F2E09181282F43810A
:10137000628186EF890F0C94150981E00C94B30902
:10138000E1E3F2E0628121E1620F08F46FEF282FC0
:10139000438181810C94150981E00C94C009E1E33B
:1013A000F2E0628121E1621B08F460E0282F4381B2
:1013B00081810C94150981E00C94CF09E1E3F2E0FE
:1013C000438121E1420F08F44FEF282F6281818190
:1013D0000C94150981E00C94DE09E1E3F2E043810D
:1013E00021E1421B08F440E0282F628181810C94A6
:1013F000150981E00C94ED0920E00C941509FF9289
:101400000F931F93CF93DF93EC01F12C0FEF10E0BC
:1014100060910B01F616F0F480916C012F2D30E0F5
:10142000280F311DC901880F991F280F391F2A5C09
:101430003D4F70E0C8010E94A524962F8C814091F9
:10144000340260913302F99E800D11240E94E70757
:10145000F394DECF0E9457089A818C8190FF02C0DE
:101460008F5F01C081508C83DF91CF911F910F91CD
:10147000FF900895BF92CF92DF92EF92FF920F9369
:101480001F93CF93DF93FC01828180FF02C00FEF97
:1014900001C001E010E080910B01181708F040C076
:1014A00080916C01C12ED12CE601C80FD11DCE0157
:1014B000880F991FC80FD91FCA5CDD4F1982188287
:1014C0001A8234E0E32EF12CB12C80916B018B0D4C
:1014D000893014F0877005C087FF03C090910B011D
:1014E000890F082E000C990BC816D90691F480912B
:1014F00034028E9DA0018F9D500D11245595479566
:10150000559547959E0160913302809132020E9469
:10151000E707B00EF1E0EF1AF108B9F61F5FBBCF95
:101520000E94570880916B01013031F4811102C093
:1015300080910B01815007C090E0019660910B01F2
:1015400070E00E94A52480936B01DF91CF911F91E1
:101550000F91FF90EF90DF90CF90BF900895CF93C1
:1015600080916C0190910C01891770F4E82FF0E0E4
:101570009F01220F331FE20FF31FEA5CFD4F118220
:10158000108212828F5FF0CFC0E060910B01C6170E
:10159000C0F5EC2FF0E070E0CF010E94A52420916F
:1015A0006C01820F20916A01022E000C330B90E037
:1015B000E217F307CCF020910A01022E000C330B46
:1015C0002E173F078CF09C01220F331F820F931FB1
:1015D0009C012A5C3D4F409134026091330280911E
:1015E00032020E94E7070BC0FC01EE0FFF1F8E0FB7
:1015F0009F1FFC01EA5CFD4F118210821282CF5FB7
:10160000C4CF0E9457082091090180916A01820F7E
:1016100080936A0190910A01920F90930A01191622
:101620005CF4082E000C990B40910B0150E04150E6
:101630005109841795071CF0219520930901CF913A
:1016400008950F931F93CF93DF938C01FC01848146
:10165000958101968170992795838483C0E0D5E5B3
:1016600080910B01C81700F580916C012C2F30E0A0
:10167000280F311DC901880F991F280F391F2A5CB7
:101680003D4F4C2F4695F80184819581840F911D23
:10169000817040913402609133028D9F802D11241E
:1016A0000E94E707CF5FDCCFDF91CF911F910F91B1
:1016B0000C9457080F931F93CF93DF93EC0100E036
:1016C00010E080910B01282F30E00217130724F55A
:1016D00090916C019801290F311DA901440F551FEC
:1016E000240F351F2A5C3D4F869590E04C810817EA
:1016F00019071CF4442331F002C0411103C040918A
:10170000340201C040E060913302809132020E94B5
:10171000E7070F5F1F4FD5CF0E9457088C8190E0DD
:101720000196817099278C83DF91CF911F910F9142
:101730000895E1E3F2E080818E7F80836081718192
:10174000828193810E940C08109276012FEF80E72E
:1017500092E0215080409040E1F700C000000C94DE
:10176000570860913102669570E04BE050E08EE0E2
:1017700091E00E94BF24892B19F481E080937601C7
:101780000E94AC1D90936F0180936E01089590911B
:10179000310290FF35C09170811102C0926006C085
:1017A000853210F0986402C0880F982B9093310214
:1017B000662351F0609131027091320280913302C0
:1017C000909134020E940C0860913102669570E09D
:1017D0004BE050E08EE091E00E94BF24892B19F08D
:1017E0001092760102C00E94B10B81E080937101DA
:1017F0004091340260913302809132020C94FC09D2
:101800000895682F90913102969581E0890F853275
:1018100008F081E00C94C70B81E00C94010C682F58
:101820009091310296958FEF890F09F484E20C9420
:10183000C70B81E00C940F0C61E00C94C70BE1E343
:10184000F2E080818160808386950C941C0C8091ED
:10185000310280FD0C94990B0C941F0C60E00C94E9
:10186000C70B8091740181112EC00E942F1C811121
:1018700004C00E94CF1C0E941E080E9408086093AA
:1018800031027093320280933302909334026E7F60
:1018900061F40E941E080E94080860933102709350
:1018A000320280933302909334020E94F507109223
:1018B00076018091310280FF03C086950E942E0C34
:1018C00081E08093740108950F931F93CF93DF936A
:1018D00080917601882309F48CC080917501E09194
:1018E0003102E695E81BE0937001823049F4F0E0A4
:1018F000EE58FD4FE491CE2FD0E001EB18E049C047
:10190000863049F4F0E0E159FD4FE491CE2FD0E06C
:1019100005EC18E03EC0893051F4E695F0E0E4595A
:10192000FD4FE491CE2FD0E00FEF19E032C08F30A1
:1019300051F4E695F0E0E759FD4FE491CE2FD0E069
:101940000AE31AE026C0853149F4F0E0EA59FD4F78
:10195000E491CE2FD0E00FEA1AE01BC0883181F06D
:10196000833239F4E4E6F2E0C591D49105ED18E054
:1019700010C0843251F4C4EFD1E00AE51BE009C085
:10198000C8EED3E001E21BE004C0C0EDD7E006EEF4
:1019900017E080917101882389F0109271010E94F3
:1019A000AC1D9E0120953095820F931F90936F017F
:1019B00080936E01109273011092720180916E01FA
:1019C00090916F010E94B81D8C179D0790F0E091D7
:1019D0006E01F0916F01CE0FDF1FD0936F01C093A6
:1019E0006E018EE691E0F801DF91CF911F910F918A
:1019F0000994DF91CF911F910F910895882311F0E1
:101A0000FA0101C0FB010994CF93DF93C82FD62FB1
:101A10000E942D088C1740F00E942D088D1720F48D
:101A2000DF91CF910C940C0C8C2FDF91CF910C9403
:101A30001C0C1F93CF93DF93FB011281111163C024
:101A4000EC010E947E1B8272FE01E25CFC45E431E7
:101A5000F10508F057C0EA5AFF4F0C94B9240E94D0
:101A6000270C51C049E15CE06CE07CE004C04CE034
:101A70005CE069E17CE00E94FE0C45C04DEB59E062
:101A800060EB79E0F8CF40EB59E06DEB79E0F3CF14
:101A90004BED59E06CEC79E0EECF4CEC59E06BED9E
:101AA00079E0E9CF49EF59E06AEE79E0E4CF4AEE18
:101AB00059E069EF79E0DFCF46E458E065E378E08C
:101AC000DACF45E358E066E478E0D5CF81E017C08F
:101AD00065E082E010C068E086E00DC06EE089E05D
:101AE0000AC064E18FE007C067E185E104C088E1D6
:101AF00006C062E289E10E94040D05C083E20E94F3
:101B00001C0C01C011E0812FDF91CF911F9108952E
:101B10005AB1E42FEF7021E030E001C0220FEA95C6
:101B2000EAF7352F322B3AB942954F70E42FF0E0A7
:101B300032A1422F4095342342A1242B4FB7F89471
:101B4000FC01CB01880F991F680F791F6E0F7F1F53
:101B5000E617F70789F0819198E02BB9000000C0E3
:101B600087FF3BB9880F000000C000C000C03BB930
:101B700000C09A9591F7ECCF4FBF87EC90E00197AA
:101B8000F1F700C00000089543E90C94880D0F930D
:101B90001F93CF93DF93C62FD42F122FFC01828186
:101BA0008823C9F0609379010E94AC1D909378015D
:101BB0008093770180E28C0F883008F057C0C7709F
:101BC00081E001C0880FCA95EAF7DF91CF911F919C
:101BD0000F910C944F1380917901681330C080915C
:101BE0007701909178010E94B81D883C910538F5E5
:101BF00000E20D0FCD17B9F080E28C0F883040F471
:101C0000C77081E001C0880FCA95EAF70E94561399
:101C1000083028F581E09D2F977001C0880F9A95B4
:101C2000EAF70E944F13812F0E943C130830F0F412
:101C3000D77081E001C0880FDA95EAF70AC080E228
:101C40008C0F883098F4C77081E001C0880FCA9566
:101C5000EAF7DF91CF911F910F910C945613812FCA
:101C6000DF91CF911F910F910C943C13DF91CF9195
:101C70001F910F9108959C01CB01233F4CE5340740
:101C8000F9F078F4283DFCE53F07B9F0293D4CE533
:101C9000340711F1273D3C4531F526E241EE61EE76
:101CA0001EC0253FFCE53F0799F070F0263F3C45FC
:101CB000D1F427E245EE66EE12C027E245EE0EC0F3
:101CC00026E241EE60EE0BC027E245EE64EE07C06F
:101CD00026E241EE62EE03C028E241E065EE0E949A
:101CE000C70D80E00895FC018281882319F01092CD
:101CF0007901089581E00895CF93DF93EC01FB0112
:101D00008281882309F41FC1C230FCE5DF0708F493
:101D10001BC1C6319CE5D90738F09E012A5F3C45BE
:101D20002930310508F010C10E94421C90935302E3
:101D300080935202C031ECE5DE0709F4C3C008F01D
:101D400041C0C8308CE5D80709F49AC0F0F4C4301B
:101D5000ECE5DE0709F487C068F4C2308CE5D807EB
:101D600009F477C0C330DC4509F0E3C0809152022A
:101D7000826076C0C630ECE5DE0709F46EC008F07C
:101D80007BC08091520288606BC0CC308CE5D80754
:101D900009F485C068F4CA30ECE5DE0709F474C0C4
:101DA00008F079C00E949B1580915202806858C04B
:101DB000CE308CE5D80709F476C008F07FC080915A
:101DC00052028BC0CB3FECE5DE0709F44FC018F59B
:101DD000C3318CE5D80709F47DC078F4C131ECE556
:101DE000DE0709F473C0C231DC4509F0A2C00E94CD
:101DF0009B15809152028F7733C0C5318CE5D8078F
:101E000009F472C008F486C0CA3FDC4509F091C0ED
:101E1000809153023EC0CF3FFCE5DF0709F45FC06D
:101E200058F4CD3F9CE5D90709F444C008F43FC0FD
:101E30008091530282602DC0C130FDE5DF0709F4B7
:101E400075C008F45DC0C230DD4509F072C080E0A5
:101E50006EC080915202816003C080915202806105
:101E60008093520266C08091520211C08091530249
:101E70008260809353025DC0809152028062F0CFF5
:101E8000809152028064ECCF80915202886084601D
:101E9000E7CF8160EECF809152028E7FE1CF8091BB
:101EA00052028D7FDDCF80915202877FD9CF809102
:101EB000530218C0809153028D7FDBCF8091520274
:101EC0008F7ECECF809152028F7DCACF80915202F9
:101ED0008F7BC6CF80915202877F8B7FC1CF80914D
:101EE00053028D7F8E7FC5CF8091520282FB2227C5
:101EF00020F991E0922790FB82F990FB83F9B0CF13
:101F000080915302982F909591708E7F892B90FB32
:101F100081F9AFCF0E949B158091520287FB222747
:101F200020F991E0922790FB87F99ACF81E00E94F7
:101F3000D11C80915202909153020E94531C0E9426
:101F40009B1580E001C081E0DF91CF910895CF9390
:101F5000DF9386319C4541F5EB010E947E1B982F53
:101F60008A812091190130911A01882379F09A7A97
:101F700081E009F480E080937A01911102C069E266
:101F800001C065E3C9010E94181D0AC080917A0151
:101F9000811102C069E201C065E3C9010E941A1DF6
:101FA0000E94CC1B80E001C081E0DF91CF910895B9
:101FB0008EE14A9B02C08150E1F74A9BFECF089513
:101FC0005A9880E28A95F1F75A9A0895FC012AE01E
:101FD0002A95F1F728E090E080E031E040E14A9571
:101FE000F1F7880F4A9B02C08160932700C0000070
:101FF00040E14A95F1F7215089F720E12A95F1F760
:1020000029B100C0000030E13A95F1F722FB222708
:1020100020F992272081920F90830895EF92FF92EA
:102020000F931F93CF93DF931F92CDB7DEB7198223
:102030008C017C01E60EF11C0E151F0551F00E946B
:10204000D80FCE0101960E94E60FF80181938F010F
:10205000F3CF81E09981911180E00F90DF91CF91D2
:102060001F910F91FF90EF90089590937C018093C2
:102070007B01529A5A9A089590937C0180937B0138
:1020800052985A9AEA9AE9E6F0E080818F7C808340
:102090000895615091E001C0990F6A95EAF720E038
:1020A00031E0992361F0492F482319F05A9A2327E8
:1020B00001C05A9840E24A95F1F79695F2CF222353
:1020C00011F05A9A01C05A9880E28A95F1F75A980D
:1020D0000895FF920F931F93CF93DF93EC018C0130
:1020E000060F111DC017D10741F0F9900E94E00FB3
:1020F00068E08F2D0E944910F5CFDF91CF911F919D
:102100000F91FF9008951F920F920FB60F92112416
:102110002F933F934F935F936F937F938F939F93EF
:10212000AF93BF93CF93DF93EF93FF935A98529A55
:10213000C0917B01D0917C016D81662321F08E815D
:102140009F810E9469100E94E00F80E18A95F1F75B
:102150005A9852985A9A80E18A95F1F76A816623D3
:1021600051F08B819C810E940E10E881F9818111D0
:1021700004C082E003C0E881F98188E080830E9486
:10218000D80FFF91EF91DF91CF91BF91AF919F91C8
:102190008F917F916F915F914F913F912F910F9010
:1021A0000FBE0F901F901895CF93DF93C0917B01C6
:1021B000D0917C01F894529A5A9885E08A95F1F76B
:1021C000000052985A9A80E28A95F1F74A9B0AC019
:1021D000529A5A9AE881F98181E08083789481E06B
:1021E00090E02CC06D81662381F08E819F810E94DA
:1021F0000E1081110AC0529A5A9AE881F98182E040
:102200008083789482E090E019C00E94D80F80E229
:102210008A95F1F75A98529A80E18A95F1F76A8186
:10222000662321F08B819C810E9469100E94E00F3F
:10223000E881F9811082789480E090E0DF91CF917D
:10224000089590938201809381010895E091810126
:10225000F0918201309721F00190F081E02D0994F6
:1022600080E00895E0918101F0918201309721F0A2
:102270000280F381E02D0994089520917F0130912F
:1022800080012817390771F09093800180937F01B6
:10229000E0918101F0918201309721F00680F78171
:1022A000E02D0994089520917D0130917E01281739
:1022B000390771F090937E0180937D01E091810157
:1022C000F0918201309721F00084F185E02D09948E
:1022D000089585B7806885BF85B7806885BF0895F4
:1022E00008950C9470110C9471110C9470110C944D
:1022F00070110E9469110E9475110C9473110E9453
:10230000A31D0E9498050E94191E0E94310C0C9476
:102310007711AF92BF92CF92DF92EF92FF920F931D
:102320001F93CF93DF93CDB7DEB72A970FB6F894FC
:10233000DEBF0FBECDBF0E9429060E94F5068111A7
:1023400011C08FEF89838A831B820E94AC1D81603C
:10235000782F9D838C8349815A816B818D810E9466
:10236000211240C084E8A82E81E0B82E00E010E0E1
:10237000C02E802F0E948305E82EF501D1905F01C9
:10238000D82631F40F5F1F4F0A30110589F7D9CFD6
:1023900080910E0281FD0E94890580E0FF24F39464
:1023A0009D2D9F21D1F08E83CF82EF2081E009F413
:1023B00080E088870E94AC1D8160782F9A8789878A
:1023C0004E815F8168858A850E942112F801EC5751
:1023D000FE4F8081F826F08205C08F5FFF0C8830A9
:1023E000F9F6D0CF0E94640C0E94261190918301CF
:1023F0008917B1F00E942611809383012A960FB6A7
:10240000F894DEBF0FBECDBFDF91CF911F910F912A
:10241000FF90EF90DF90CF90BF90AF900C9434037B
:102420002A960FB6F894DEBF0FBECDBFDF91CF91D5
:102430001F910F91FF90EF90DF90CF90BF90AF90E2
:102440000895CF93DF93CDB7DEB72B970FB6F894EF
:10245000DEBF0FBECDBF4F83588769877A878B87D2
:10246000DE01119686E0FD0111928A95E9F785E07B
:10247000FE01379601900D928A95E1F749815A81C4
:102480006B817C818D819E810E946B182B960FB68B
:10249000F894DEBF0FBECDBFDF91CF910895FC0150
:1024A000808191810E943F1B0895CF93882309F476
:1024B00082C0C82F8238C1F40E94261181FD7BC0E2
:1024C00069E38091190190911A010E94181D0E94E0
:1024D000CC1B2FEF81EE94E0215080409040E1F73B
:1024E00000C0000069E319C08338F1F40E9426118E
:1024F00080FD61C063E58091190190911A010E94ED
:10250000181D0E94CC1B2FEF81EE94E021508040DB
:102510009040E1F700C0000063E5809119019091BF
:102520001A010E941A1D44C08438C1F40E94261169
:1025300082FD41C067E48091190190911A010E94C7
:10254000181D0E94CC1B2FEF81EE94E0215080409B
:102550009040E1F700C0000067E4DFCF8CEF8C0F04
:10256000813AD0F46C2F8091190190911A010E9448
:10257000E21C882349F06C2F8091190190911A0177
:102580000E941A1D0E94CC1B6C2F80911901909102
:102590001A010E94181D0CC080E28C0F883058F47C
:1025A000C77081E001C0880FCA95EAF70E94811BBD
:1025B000CF910C94CC1BCF910895882309F45BC074
:1025C000682F823879F40E94261181FF54C069E394
:1025D0008091190190911A010E94181D0E94CC1B34
:1025E00069E310C08338B1F40E94261180FF43C014
:1025F00063E58091190190911A010E94181D0E94B3
:10260000CC1B63E58091190190911A010E941A1D5B
:102610000C94CC1B843879F40E94261182FF2BC0C5
:1026200067E48091190190911A010E94181D0E947F
:10263000CC1B67E4E7CF8CEF860F813A18F380E27A
:10264000860F883048F4677081E001C0880F6A9572
:10265000EAF70E94871BDCCF8BE5860F833020F4DE
:1026600080E090E00C943D11685A673120F480E0DE
:1026700090E00C9453110895CF93C82F0E945512E7
:10268000C93349F42FEF87EE93E02150804090400A
:10269000E1F700C000008C2FCF910C94DD1288234D
:1026A00021F00E94811B0C94CC1B0895882321F0FB
:1026B0000E94871B0C94CC1B0895CF92DF92EF925F
:1026C000FF920F931F93CF93DF937C01062FC72FA9
:1026D000FC01D581D295DF70128111110E949E1BE1
:1026E0000E94771B882379F0112369F080E2800F24
:1026F000883048F082E00E94161C0E94771B91E00F
:10270000D82ED92601C0D12CCC2EC2948FE0C8225D
:102710008C2D90E0FC01E659FF4F0C94B9248C2FCE
:10272000807FCF70882311F0C295C07F112399F06C
:10273000CC2309F464C180E2800F883010F00111CD
:1027400004C08C2F0E94811B03C08C2F0E94911B00
:102750000E94CC1B54C1802F0E94DD12CC2309F4AF
:1027600073C180E2800F883010F0011104C08C2FFB
:102770000E94871B03C08C2F0E94971B0E94CC1BBA
:1027800063C18C2F807FCF70803211F0C295C07FE3
:10279000002319F00130C9F022C0112371F0DD23AC
:1027A00041F0D13031F40E94B11B8C2B0E94B91B37
:1027B0004BC10E94B11B8C2B1DC0DD2319F0D13001
:1027C00009F442C10E94C21B25C0112321F0D6305A
:1027D00008F03AC10EC0D53008F036C11BC0112335
:1027E00061F0DD2331F0F701858180FF08C18F7032
:1027F00085838C2F0E944F1327C1DD2359F00933A5
:1028000009F00EC1FFEF27EE83E0F1502040804039
:10281000E1F704C18C2F0E94561316C18C2F8370D0
:1028200009F045C0111114C1402F429546954770DB
:10283000440F440F602F6F70862F90E0A0E0B0E04F
:10284000042E04C0880F991FAA1FBB1F0A94D2F739
:1028500004FF10C00FE010E020E030E004C0000FE3
:10286000111F221F331F4A95D2F70095109520950E
:10287000309503C000E010E09801C695C695C3707E
:10288000BC01CD01602B712B822B932BC23049F000
:1028900058F4C13019F00E94BC19DAC00E94AA197C
:1028A000D7C00E94CE19D4C00E94A819D1C011234C
:1028B00019F08C2F817001C08695882309F4C8C057
:1028C000402F429546954770440F440F602F6F701C
:1028D000862F90E0A0E0B0E0042E04C0880F991F7E
:1028E000AA1FBB1F0A94D2F704FF10C00FE010E02C
:1028F00020E030E004C0000F111F221F331F4A9553
:10290000D2F7009510952095309503C000E010E0B7
:102910009801C695C695C370BC01CD01602B712B83
:10292000822B932BC23049F058F4C13019F00E9429
:10293000811A8EC00E946F1A8BC00E94931A88C0A1
:102940000E94E21985C0CF70112339F08C2F0E94AC
:10295000081A802F0E944F137BC0802F0E945613AD
:102960008C2F0E94291A74C0023F01F128F4003F05
:1029700041F0013FA1F03FC0033FF9F0043F39F1BE
:102980003AC0112341F0D53008F05EC08C2F8F7112
:102990000E944E1A59C0D63008F056C0F7CF112306
:1029A00039F08C2F8F710E94081A4EC01123C9F381
:1029B0008C2F8F710E94291A47C0112329F08C2F68
:1029C0008F710E94F31940C00E94EE193DC011237F
:1029D00049F0CF718C2F0E94081A63E08C2F0E945F
:1029E000011C32C081E00E94161CD23068F182E0E6
:1029F0000E94161C29C0112331F0DD2391F2802F93
:102A00000E94551221C0DD2399F2093349F49FEF4A
:102A1000E7EEF3E09150E040F040E1F700C0000045
:102A2000802F0E94DD1210C04C2F4F70602FC70105
:102A30000E948F030E9419190FC04C2F4F70602FF6
:102A4000C7010E94920308C088EF8C0D843020F4E7
:102A50000E9426110E943403DD20C9F00E94731BDE
:102A600080FD15C0F70112820E946D1B0E94081A9A
:102A7000C7010E9468150E946D1BDF91CF911F91C5
:102A80000F91FF90EF90DF90CF900C94291ADF9177
:102A9000CF911F910F91FF90EF90DF90CF9008950D
:102AA0000F931F93CF93DF93EC01688179818A8123
:102AB0000E944A1B8C010E94A51A0E949619B80117
:102AC000CE010E945D13DF91CF911F910F91089568
:102AD000CF93DF93FC019081818123813481232B6B
:102AE00031F08F3F31F481E09F3F19F403C081E062
:102AF00001C080E080FD0EC0EF01CF010E944D03B8
:102B0000882341F0CE010E945015CE01DF91CF9174
:102B10000C941903DF91CF9108950E949E1B0E948F
:102B2000AE1B0C94CC1B8091190190911A010E944C
:102B30001C1D0C948D150E948E1B0C949315E92F6F
:102B4000E295EF704E2F50E0FA013297EE30F1052A
:102B5000B0F4E658FF4F0C94B924803F91F018F47C
:102B6000883E68F40EC0843F51F40BC0883E48F0A4
:102B7000813F29F406C093FB882780F9089580E0FF
:102B8000089581E008950E943F1B0E949F150895BB
:102B9000CF93DF9300D000D01F92CDB7DEB70F9058
:102BA0000F900F900F900F90DF91CF910895CF93DA
:102BB000DF9300D000D000D0CDB7DEB726960FB699
:102BC000F894DEBF0FBECDBFDF91CF9108951F9364
:102BD000CF93DF93C0918F0116E080919001C817C9
:102BE00099F0D0E01C9FF0011D9FF00D1124EF56CD
:102BF000FE4F4081518162817381848195810E9461
:102C0000D7152196C770E9CFDF91CF911F91089515
:102C10004091C1015091C2016091C3017091C40102
:102C20008091C5019091C6010C94D715CF938091E6
:102C3000C60182958F7009F05FC08091C30188231F
:102C400009F45AC080918F01B09190017091C10137
:102C5000A091C2014091C4015091C50191E07F3F14
:102C600009F090E0692FC6E08B1709F445C04115C3
:102C7000510521F0AF3F21F020E003C021E001C069
:102C8000262F90E020FD35C0C89FF001C99FF00DB0
:102C90001124EF56FE4F21812A132BC020812713C8
:102CA00028C02281211125C02381348124173507B2
:102CB00010F421503109241B350B283C3105C8F490
:102CC0002091C6012F7020612093C60126E0289F25
:102CD000F001299FF00D1124EA56FE4F80818F707C
:102CE0008061808381EC91E00E946815CF910C9403
:102CF000E71501968770B8CFCF910895AF92BF9234
:102D0000CF92DF92EF92FF920F931F93CF93DF93B7
:102D1000CDB7DEB761970FB6F894DEBF0FBECDBF5B
:102D20008C0185E0F801DE011D9601900D928A95D7
:102D3000E1F7D8014C9111965C9111971296EC90A5
:102D40003091C1016091C2018091C4019091C5018F
:102D5000009731F06F3F31F421E03F3F19F403C099
:102D600021E001C020E0B22FB170BB2E20FD60C178
:102D7000F801C380D480A090C301AA2009F4EEC05A
:102D80002091C601C816D90628F0D601A81BB90B98
:102D9000CD0104C0809590958C0D9D1DFF24F3946A
:102DA000883C910580F0F12C207F09F09CC07C2D9F
:102DB000D98AC88A6E2D89890E94C81581EC91E054
:102DC0000E9468152DC1822F807F09F054C05613D0
:102DD00014C0431312C0FE2CE1100FC02F702061ED
:102DE0002093C6010E94081681EC91E00E946815AC
:102DF0008091C601F80185835CC1CD2831F05F3F29
:102E000031F481E04F3F19F403C081E001C080E05C
:102E100080FD03C081E08E2502C080E090E0F82FA5
:102E2000F170FF2E80FF1CC080918F0120919001D6
:102E300036E0821709F41AC190E0389FF001399FFB
:102E4000F00D1124EF56FE4F6181561306C06081CC
:102E5000461303C06281E61203C001968770E9CF72
:102E6000FE2CEE2009F425C18091C601816080937B
:102E7000C601F12C1EC1561309C0431307C0E1104F
:102E800005C08091C601F8018583A4C04D875E8787
:102E90008D859E850E94C315882379F1EE2069F106
:102EA0002091C601822F82958F7090E0029774F076
:102EB0008091C1019091C20198878F831986DB862A
:102EC000CA862C87CE0107960E94681586E0F80115
:102ED000A1ECB1E001900D928A95E1F70E941616DF
:102EE0000E9408160DC0561771F04D875E878D85BC
:102EF0009E850E94C31581111AC0C8010E946815E1
:102F0000FF24F394D6C04313F0CFE110EECF8091AD
:102F1000C601F8018583C8010E94681586E0E1ECCE
:102F2000F1E0DF011D928A95E9F7FA2CC2C0EE208C
:102F300021F32091C601822F82958F7090E0029735
:102F40002CF28091C1019091C2019A8389831B82E6
:102F5000DD82CC822E83CE010196B6CFC816D9066B
:102F600028F0F601E81BF90BCF0104C0809590957D
:102F70008C0D9D1D883C910548F0F12C7C2DD98A43
:102F8000C88A6E2D89890E94C8154AC0FE2CEE2081
:102F900009F4B3CF561333C0431331C02091C60197
:102FA00020FD24C0822F82958F70482F50E041155C
:102FB0005105E1F0D80115962C9315974F30510526
:102FC00049F08F5F982F9295907F822F8F70892B79
:102FD00015968C93C8010E94681586E0F801A1EC53
:102FE000B1E001900D928A95E1F73DC086E0F801CD
:102FF000A1ECB1E001900D928A95E1F75AC04D879E
:103000005E878D859E850E94C31581115FCF80915B
:10301000C60181608093C601C8010E94681549C03D
:10302000E1ECF1E086E0DF011D928A95E9F71BC033
:10303000EE2009F462CF4D875E878D859E850E94C4
:10304000C315F82E882309F458CF86E0F801A1ECC7
:10305000B1E001900D928A95E1F781EC91E00E9438
:103060004F120E9416160E94081623C04D875E87D5
:103070008D859E850E943F1B292F22952F7022301F
:1030800028F49F7039F0811105C00BC0243028F45A
:103090009F7049F4805E883020F0C8010E94681556
:1030A000BF2CFB2C06C0D80115969C91907F91F700
:1030B000F8CF8F2D61960FB6F894DEBF0FBECDBF4F
:1030C000DF91CF911F910F91FF90EF90DF90CF9004
:1030D000BF90AF9008951F93CF93DF93CDB7DEB726
:1030E0002C970FB6F894DEBF0FBECDBF4F83588725
:1030F00069877A878B879C87CE0107960E947E1608
:103100008823D1F09F8188852A853B85232B31F048
:103110008F3F31F481E09F3F19F403C081E001C08B
:1031200080E080FD47C04F81588569857A858B8511
:103130009C850E94D7153EC086E0FE013796DE01D1
:10314000119601900D928A95E1F7FF81E8856A85D5
:103150007B856115710531F0EF3F31F481E0FF3F70
:1031600019F403C081E001C080E080FD23C02091FC
:10317000900130E0C90101968770992740918F0135
:1031800050E084179507F1F1F983EA837D836C831E
:1031900096E0929FD001939FB00D1124AF56BE4F81
:1031A000FE01319601900D929A95E1F7809390017E
:1031B0000E94E71516E080918F0190919001891788
:1031C00071F1189FC00111248F569E4F0E947E16E8
:1031D000882329F1E0918F011E9FF0011124EF5601
:1031E000FE4F4081518162817381848195810E946B
:1031F000D71580918F0190E0019687709927809371
:103200008F01D9CF0E949B151092900110928F01CF
:10321000E1ECF1E086E0DF011D928A95E9F72C965A
:103220000FB6F894DEBF0FBECDBFDF91CF911F91D7
:103230000895EF92FF920F931F93CF93DF938C012A
:10324000892B09F46CC0F12CEE24E394E80121965B
:10325000F8018491843740F4843008F051C0813003
:1032600081F0823019F15BC0853709F444C0A8F1C0
:103270009CE7980F903708F052C08F770E94DD12BC
:1032800041C00E5F1F4FFE01849190E2980F98306D
:1032900050F48770FE2D01C0FF0F8A95EAF78F2F3B
:1032A0000E94A11B14C00E9455122DC00E5F1F4F1B
:1032B000FE01849190E2980F983060F48770FE2DA3
:1032C00001C0FF0F8A95EAF78F2F0E94A71B0E946B
:1032D000CC1B19C00E94DD1216C00E5F1F4FFE01ED
:1032E000C491CC2381F08FE99FE00197F1F700C0F2
:1032F0000000C150F6CF0E5F1F4FFE01F49003C0D7
:103300000E9455128E018F2D882309F49FCFEFE97B
:10331000FFE03197F1F700C000008150F5CFDF9159
:10332000CF911F910F91FF90EF9008950895089508
:103330000C9497190C9498190E949A196093FD01A6
:103340007093FE018093FF01909300020C948D1501
:103350000C949C190F931F930091FD011091FE0195
:103360002091FF0130910002602B712B822B932B57
:103370001F910F910C949C190F931F930091FD01C5
:103380001091FE012091FF01309100026023712312
:10339000822393231F910F910C949C190F931F93D9
:1033A0000091FD011091FE012091FF01309100027A
:1033B00060277127822793271F910F910C949C19E6
:1033C0000C9497190E94E0196093F9017093FA0127
:1033D0008093FB019093FC010C948D1560E070E0EC
:1033E000CB010C94E2190F931F9341E050E060E091
:1033F00070E08A019B0104C0000F111F221F331FC0
:103400008A95D2F7C901B8011F910F910C94E21966
:103410000F931F9341E050E060E070E004C0440F60
:10342000551F661F771F8A95D2F78091F9019091F9
:10343000FA01A091FB01B091FC018A019B01082BCC
:10344000192B2A2B3B2BC901B8011F910F910C940A
:10345000E2190F931F9341E050E060E070E004C078
:10346000440F551F661F771F8A95D2F740955095D8
:10347000609570958091F9019091FA01A091FB01FE
:10348000B091FC018A019B01082319232A233B23C5
:10349000C901B8011F910F910C94E2190F931F936A
:1034A00041E050E060E070E004C0440F551F661F2B
:1034B000771F8A95D2F78091F9019091FA01A09136
:1034C000FB01B091FC018A019B01082719272A27DB
:1034D0003B27C901B8011F910F910C94E2190F937A
:1034E0001F930091F9011091FA012091FB01309195
:1034F000FC01602B712B822B932B1F910F910C944D
:10350000E2190F931F930091F9011091FA01209194
:10351000FB013091FC0160237123822393231F91CF
:103520000F910C94E2190F931F930091F9011091E0
:10353000FA012091FB013091FC016027712782275D
:1035400093271F910F910C94E219089528E0929F00
:10355000800D1124E82FE695E695E695877051E0F9
:1035600001C0550F8A95EAF785E0E89FF001112424
:10357000E953FE4F20E030E070E04081CB01022EA5
:1035800002C0969587950A94E2F781708195842709
:103590008523842781932F5F3F4F2530310569F7BD
:1035A000089528E0929F800D1124682F66956695F6
:1035B0006695982F977085E0689FB001112440E0D0
:1035C00050E080E0FB01E40FF51FE953FE4F20813E
:1035D00030E0092E02C0369527950A94E2F7217053
:1035E0003327042E01C0220F0A94EAF7822B4F5F83
:1035F0005F4F4530510531F70895BF92CF92DF926A
:10360000EF92FF920F931F93CF93DF938C01C090A3
:10361000F901D090FA01E090FB01F090FC0180915B
:10362000FD019091FE01A091FF01B0910002C82A16
:10363000D92AEA2AFB2ACFE1D0E0D701C6010C2E15
:1036400004C0B695A795979587950A94D2F780FD03
:1036500004C0219790F7B12C07C0BC2EB8018C2F65
:103660000E94B0030197A9F38B2DDF91CF911F9199
:103670000F91FF90EF90DF90CF90BF900895CF9380
:10368000DF93EC010E94FD1ABE010E94B003DF919E
:10369000CF9108951F93CF93DF93EB0190918E010B
:1036A000992321F0CB010E943F1B13C0882349F0CE
:1036B000CB010E94FD1A182F682FCE010E94A61A76
:1036C00004C0CB010E94D11A182FBE01812F0E9485
:1036D000B003DF91CF911F910895809101028595EC
:1036E0008595859508958091010287700895909140
:1036F0000102977081E009F480E0089580910D0245
:10370000089590910D02892B80930D020895809564
:1037100090910D02892380930D02089510920D025D
:10372000089590910C02892B80930C020895809546
:1037300090910C02892380930C02089510920C0240
:10374000089590910B02892B80930B020895809528
:1037500090910B02892380930B02089510920B0223
:10376000089580910202089508950C94B41B0C945E
:10377000B51B90910202981721F0809302020C94DD
:10378000B71B089580910202882329F0109202024B
:1037900080E00C94B71B0895E0911901F0911A0193
:1037A00080910D028083E0911901F0911A019081BE
:1037B00080910C02892B8083E0911901F0911A010C
:1037C000908180910B02892B808380910202882353
:1037D00081F0E0911901F0911A019081892B808389
:1037E0008091190190911A010E94D61C81110E94AA
:1037F000C21B8091190190911A010C9432110C9402
:10380000B41B98E0899F90011124262B209301027C
:103810000E94081A809101028595859585950C94E2
:10382000FF1B1092010280E00C94FF1B209101020B
:103830008095822380930102982F977079F430E06D
:10384000482F082E000C550B2417350739F08595A5
:10385000859585950E94291A0C94111C089580E085
:1038600090E00E94DA2421E08C3E9E4F09F020E097
:10387000822F089582E090E00C94CC2483E090E0C5
:103880000C94CC24CF9384E090E00E94CC24C82FE9
:1038900081E290E00E94CC242C2F30E0A901582B2B
:1038A000CA01CF910895CF93C92F682F84E090E08B
:1038B0000E94E0246C2F81E290E0CF910C94E024F0
:1038C000AB01BC018FE090E00C94F224AB01BC0191
:1038D00083E190E00C94F22460E070E0CB010C9462
:1038E000661C60E070E0CB010E94601C0C946C1CB4
:1038F0006CEE7EEF80E090E00E94FE2460E082E0CB
:1039000090E00E94E02460E083E090E00E94E024E8
:103910001092FD011092FE011092FF011092000220
:1039200060E084E090E00E94E02460E081E290E0CA
:103930000E94E02460E085E090E00E94E02460E0E6
:1039400086E090E00E94E0246FEF87E090E00E9424
:10395000E02440E050E0BA0188E090E00E94F224C8
:1039600060E08DE090E00E94E02440E050E0BA0189
:1039700088E190E00E94F22460E087E190E00E94FC
:10398000E02440E050E0BA018CE190E00E94F22493
:1039900060E080E290E00E94E0240C94711C0C94A2
:1039A000781C682F8EE090E00C94E024FC013296A5
:1039B00097E080E0915029F021912223D9F38F5F85
:1039C000F9CF0895662349F0FC01329608962191BB
:1039D000621729F0E817F907D1F780E0089581E030
:1039E00008959C01FC0132969FEF80E041914617BB
:1039F00089F09F3F19F4411101C0982F8F5F8630E5
:103A0000A9F79F3F39F0F901E90FF11D97FDFA95EC
:103A10006283089508959C012A5F3F4FFC01428113
:103A2000461301C01282019682179307B9F70895D1
:103A30000C94F11C0C940B1D029626E0FC011192D3
:103A40002A95E9F7089508950C94231D0C94231DDD
:103A5000CF930E94261D0E9429060E94241DC0E0CB
:103A60008C2F0E948305811104C0CF5FCA30C1F73B
:103A700001C081E0CF9108950C94231D0C943C1D4E
:103A80000E943E1D80915802843049F110920F022D
:103A900020E488E190E00FB6F894A8958093600048
:103AA0000FBE2093600080E00E9434030E943E1D00
:103AB00083B7817F846083BF83B7816083BF78943D
:103AC000889583B78E7F83BF0FB6F894A8958091B1
:103AD0006000886180936000109260000FBE0895BE
:103AE0000C94231D0E949B150E9426110E943403F2
:103AF0000C94701D1F920F920FB60F9211248F938A
:103B00009F93AF93BF9380910F02811113C0809157
:103B10004E0290914F02A0915002B09151024196F5
:103B2000A11DB11D80934E0290934F02A0935002AD
:103B3000B0935102BF91AF919F918F910F900FBEA3
:103B40000F901F90189582E084BD93E095BD9AEF89
:103B500097BD80936E0008952FB7F89480914E0220
:103B600090914F02A0915002B09151022FBF089541
:103B7000CF92DF92EF92FF920F931F932FB7F8949B
:103B800040914E0250914F0260915002709151024B
:103B90002FBF6A017B01EE24FF248C0120E030E07E
:103BA000C016D106E206F30610F4415051099A01FD
:103BB000281B390BC9011F910F91FF90EF90DF90E7
:103BC000CF90089578941F920F920FB60F92112400
:103BD0008F939F93AF93BF9380914E0290914F022A
:103BE000A0915002B09151020196A11DB11D809388
:103BF0004E0290934F02A0935002B0935102BF9196
:103C0000AF919F918F910F900FBE0F901F901895BD
:103C100087E797E790930108809300089AE088E18E
:103C20000FB6F894A895809360000FBE9093600043
:103C3000FFCF0E942F1C811102C00E94CF1C0E9446
:103C40003A1C80930E020E94421C90935302809370
:103C500052020E943E1C682F70E080E090E00C94BD
:103C6000A81980911802089508950895CF93DF93BD
:103C7000EC010E94D61F823011F0843039F581E0CA
:103C80008093E9008FEF9091E800815095FD06C088
:103C900095ED9A95F1F700008111F5CF8091E8003C
:103CA00085FF14C040E050E068E070E0CE010E9463
:103CB000F31F8091E8008E778093E80088E0FE0192
:103CC000A0E1B2E001900D928A95E1F7DF91CF91EA
:103CD0000895089580915702811109C00E9484219E
:103CE0000E94E1218091E20084608093E2000895C7
:103CF000109257020895089508950C94721D42E0A1
:103D000061EC81E00C94FD2080915A02833009F42B
:103D100060C030F4813071F0823009F499C00895A8
:103D20008A3009F485C08B3009F46BC0893009F002
:103D3000A7C020C080915902813A09F0A1C08091AA
:103D4000E800877F8093E80080915D0290915E0299
:103D5000892B21F468E080E192E003C060E080E01C
:103D600090E070E00E943E208091E8008B77809385
:103D7000E800089580915902813209F081C0809154
:103D80005D0290915E02892B09F07AC08091E80073
:103D9000877F8093E8008091E80082FD05C08091D4
:103DA00058028111F8CF6CC02091F3008091F2008D
:103DB00090E0922B029729F48091F1008B7F813063
:103DC00021F48091F100809318028091E8008B77B4
:103DD00053C080915902813A09F052C080915D022E
:103DE00090915E02892B09F04BC08091E800877F9B
:103DF0008093E8008091E80080FFFCCF809125014E
:103E000036C0809159028132D9F580915D0290913E
:103E10005E02892BA9F58091E800877F8093E800F6
:103E20000E94322180915B02809325010C949B15A6
:103E300080915902813221F58091E800877F80933B
:103E4000E8000E94322180915C028093190208955B
:103E500080915902813AA1F48091E800877F809394
:103E6000E8008091E80080FFFCCF809119028093E8
:103E7000F1008091E8008E778093E8000C94322165
:103E8000089584B7877F84BF0FB6F894A895809172
:103E90006000886180936000109260000FBE90E027
:103EA00080E80FB6F89480936100909361000FBE94
:103EB0000E9479110E9484210E94E1218091E200F8
:103EC00084608093E20078940E9476240E947F119F
:103ED0008BE191E00E94211180915802853069F4B4
:103EE0000E94401D809156028823B1F30E94281D34
:103EF000882391F30E94DD1FEFCF0E948911ECCF40
:103F00000C94821F292F332723303105C1F058F438
:103F10002130310579F022303105C1F582E290E09F
:103F200027EA34E037C02132310511F12232310560
:103F300031F12CC082E190E029EC34E02BC09927CC
:103F40008130910561F040F08230910559F003977E
:103F5000E9F4EBE7F4E008C0E3EAF4E005C0E1E9E6
:103F6000F4E002C0E1E8F4E0849190E09F0112C027
:103F7000672B61F489E090E029EB34E00BC0672BFC
:103F800029F480E490E02BED34E004C080E090E080
:103F900020E030E0FA0131832083089580915802B7
:103FA000843011F081E0089582E0089580911A0232
:103FB000811102C00C94CE1F089580E189BD82E179
:103FC00089BD09B400FEFDCF8091D8008F7D80931C
:103FD000D8008091E00082608093E0008091E00052
:103FE00081FDFCCF0895CF92DF92EF92FF920F9365
:103FF0001F93CF93DF93EC018B017A010E94512133
:10400000811133C0E114F10439F0F701808191810D
:10401000081B190BC80FD91FC12CD12C0115110574
:1040200019F18091E80085FD16C08091E8008E7737
:104030008093E800E114F10449F0F7018081918157
:10404000C80ED91ED182C08285E00FC00E945121C6
:10405000882321F30AC089918093F100015011094E
:10406000FFEFCF1ADF0ADACF80E0DF91CF911F9107
:104070000F91FF90EF90DF90CF90089520915F0215
:10408000309160022617370748F06115710539F441
:104090002091E8002E772093E80001C0B901FC01CF
:1040A00020E06115710579F1809158028823F1F1C2
:1040B0008530F1F18091E80083FD3CC08091E800FB
:1040C00082FD2EC08091E80080FFEBCF2091F300AD
:1040D0008091F20090E0922B6115710551F08830CB
:1040E000910538F421912093F100615071090196F6
:1040F000F3CF21E0089709F020E08091E8008E7767
:104100008093E800CECF2111CFCF0AC08091580212
:10411000882361F0853061F08091E80083FD0AC05A
:104120008091E80082FFF2CF80E0089582E0089558
:1041300083E0089581E0089520915F02309160024C
:104140002617370748F06115710539F42091E8000A
:104150002E772093E80001C0B901FC0120E0611531
:10416000710591F180915802882309F440C085308F
:1041700009F43FC08091E80083FD3DC08091E800D4
:1041800082FD2FC08091E80080FFE9CF2091F300ED
:104190008091F20090E0922B6115710559F0883002
:1041A000910540F424912093F100319661507109FA
:1041B0000196F2CF21E0089709F020E08091E80015
:1041C0008E778093E800CBCF2111CCCF0AC08091AD
:1041D0005802882361F0853061F08091E80083FD0A
:1041E0000AC08091E80082FFF2CF80E0089582E06B
:1041F000089583E0089581E00895982F973068F539
:104200009093E900981739F07091EC002091ED003F
:104210005091F00003C0242F762F50E021FD02C002
:104220009F5FECCF3091EB003E7F3093EB003091FD
:10423000ED003D7F3093ED003091EB003160309325
:10424000EB007093EC002093ED005093F000209170
:10425000EE0027FDE5CF80E008958F708093E900A0
:1042600081E008958091590287FF11C08091E80094
:1042700082FD05C0809158028111F8CF11C0809154
:10428000E8008B770BC080915802882349F0809119
:10429000E80080FFF8CF8091E8008E778093E800F7
:1042A00008952091E4003091E50095E64091EC00FE
:1042B000842F817040FF23C08091E80080FD1DC0E5
:1042C00080915802882399F0853099F08091EB0015
:1042D00085FD11C04091E4005091E5002417350799
:1042E00029F3915011F09A01E1CF84E0089582E022
:1042F000089583E0089581E0089580E00895409155
:10430000E80042FFDDCF08950E94F2210E94FA21C9
:10431000E0EEF0E0808181608083E8EDF0E0808174
:104320008F77808319BCA7EDB0E08C918E7F8C9342
:1043300080818F7E80831092570208950F931F9380
:10434000CF93DF930E94F2210E94FA21C8EDD0E0C2
:1043500088818F77888388818068888388818F7D32
:10436000888319BC1092580210925402109256027F
:104370001092550200EE10E0F80180818B7F80835F
:1043800088818160888342E060E080E00E94FD20B7
:10439000E1EEF0E080818E7F8083E2EEF0E08081CC
:1043A00081608083808188608083F80180818E7F36
:1043B0008083888180618883DF91CF911F910F91E5
:1043C0000895E8EDF0E080818F7E8083E7EDF0E0F6
:1043D00080818160808384E082BF81E08093570286
:1043E0000C949E21E8EDF0E080818E7F8083109216
:1043F000E20008951092DA001092E10008951F92F1
:104400000F920FB60F9211242F933F934F935F9308
:104410006F937F938F939F93AF93BF93EF93FF938C
:104420008091E10082FF0BC08091E20082FF07C013
:104430008091E1008B7F8093E1000E947524809140
:10444000DA0080FF1FC08091D80080FF1BC08091E0
:10445000DA008E7F8093DA008091D90080FF0DC052
:1044600080E189BD82E189BD09B400FEFDCF81E014
:10447000809358020E946A1E05C019BC109258020F
:104480000E94781E8091E10080FF19C08091E200B7
:1044900080FF15C08091E2008E7F8093E2008091C2
:1044A000E20080618093E2008091D8008062809376
:1044B000D80019BC85E0809358020E947C1E809130
:1044C000E10084FF30C08091E20084FF2CC080E1D5
:1044D00089BD82E189BD09B400FEFDCF8091D8007D
:1044E0008F7D8093D8008091E1008F7E8093E100E2
:1044F0008091E2008F7E8093E2008091E2008160F3
:104500008093E20080915402882311F084E007C078
:104510008091E30087FD02C081E001C083E08093C9
:1045200058020E947D1E8091E10083FF29C0809186
:10453000E20083FF25C08091E100877F8093E10046
:1045400082E080935802109254028091E1008E7FA5
:104550008093E1008091E2008E7F8093E200809161
:10456000E20080618093E20042E060E080E00E942F
:10457000FD208091F00088608093F0000E947B1EF7
:10458000FF91EF91BF91AF919F918F917F916F912B
:104590005F914F913F912F910F900FBE0F901F9001
:1045A00018951F920F920FB60F9211242F933F93DD
:1045B0004F935F936F937F938F939F93AF93BF932B
:1045C000CF93DF93EF93FF93C091E900CF70809179
:1045D000EC00D82FD17080FDD0E81092E9008091D6
:1045E000F000877F8093F00078940E94152310924A
:1045F000E9008091F00088608093F000CD2BCF70AF
:10460000C093E900FF91EF91DF91CF91BF91AF91FE
:104610009F918F917F916F915F914F913F912F91DA
:104620000F900FBE0F901F9018951F93CF93DF939D
:10463000CDB7DEB7AA970FB6F894DEBF0FBECDBFD9
:10464000E9E5F2E08091F100819322E0E136F207A2
:10465000C9F70E94841E8091E80083FF2EC18091DB
:10466000590290915A02492F50E04A30510508F002
:1046700024C1FA01E857FF4F0C94B924803821F087
:10468000823809F01AC108C08091550290915602F3
:10469000992389F082600FC080915D028F7087300E
:1046A00008F00BC18093E9008091EB0085FB88271F
:1046B00080F91092E9009091E800977F9093E800CC
:1046C0008093F1001092F100D1C0282F2D7F09F0C6
:1046D000F4C0882319F0823061F0EFC080915B0252
:1046E000813009F0EAC0933009F080E080935602EF
:1046F0002EC080915B0281112AC080915D028F7073
:104700002FEF280F263008F0D8C08093E9002091C1
:10471000EB0020FF1CC0933021F48091EB008062FD
:1047200014C09091EB0090619093EB0021E030E099
:10473000A90102C0440F551F8A95E2F74093EA0091
:104740001092EA008091EB0088608093EB00109259
:10475000E9008091E800877F8093E8000E94322181
:10476000ACC08111AAC010915B021F778091E30059
:104770008078812B8093E3008091E800877F80938D
:10478000E8000E9432218091E80080FFFCCF8091F8
:10479000E30080688093E300111102C082E001C051
:1047A00083E08093580289C08058823008F085C029
:1047B00080915B0290915C028C3D53E0950779F506
:1047C00083E08A838AE289834FB7F894DE011396E7
:1047D00020E03EE051E2E32FF0E050935700E491F7
:1047E00020FF03C0E295EF703F5FEF708E2F90E0E7
:1047F000EA3010F0C79601C0C0968D939D932F5F4D
:10480000243149F74FBF8091E800877F8093E8000B
:104810006AE270E0CE0101960E943E2016C06091CF
:104820005D0270915E02AE014F5F5F4F0E94801F7C
:10483000BC01892B09F441C09091E800977F9093C7
:10484000E80089819A810E949C208091E8008B7702
:104850008093E80032C0803881F58091E800877F3E
:104860008093E800809154028093F1008091E800E9
:104870008E7772CF811121C080915B0290915C0292
:1048800099270297D4F48091E800877F8093E8000D
:1048900080915B02809354020E94322180915402E5
:1048A000811106C08091E30087FD02C081E001C054
:1048B00084E0809358020E947F1E8091E80083FF6D
:1048C0000AC08091E800877F8093E8008091EB0028
:1048D00080628093EB00AA960FB6F894DEBF0FBEFD
:1048E000CDBFDF91CF911F9108950895CF9380910F
:1048F00058028823A1F0C091E900CF709091EC009C
:10490000892F817090FD80E8C82B1092E90080917A
:10491000E80083FD0E941523CF70C093E900CF917A
:104920000895AA1BBB1B51E107C0AA1FBB1FA617F6
:10493000B70710F0A61BB70B881F991F5A95A9F748
:1049400080959095BC01CD01089597FB072E16F434
:10495000009407D077FD09D00E94912407FC05D070
:104960003EF4909581959F4F0895709561957F4F86
:104970000895EE0FFF1F0590F491E02D0994FC01BE
:104980004150504030F001900616D1F73197CF01D9
:104990000895882799270895F999FECF92BD81BD82
:1049A000F89A992780B50895A6E1B0E044E050E078
:1049B0000C940625A8E1B0E042E050E00C940625F6
:1049C000262FF999FECF92BD81BDF89A019700B4C8
:1049D000021639F01FBA20BD0FB6F894FA9AF99A68
:1049E0000FBE08950396272F0E94E1240E94E02421
:1049F000252F0E94E124242F0C94E1240196272FD7
:104A00000E94E1240C94E024DC01CB01FC01F99923
:104A1000FECF06C0F2BDE1BDF89A319600B40D920A
:0C4A200041505040B8F70895F894FFCFC3
:104A2C000163010064010564010102080808011911
:104A3C001A1B1C1D1E1F2021220302311E361E3480
:104A4C001E691E351E01943331F73236F6F5669722
:104A5C00C634350000000000000102020202060606
:104A6C00060909090909090F0F0F0F0F0F15151565
:0E4A7C001819191919191919191919232400D3
:00000001FF
